:020000040000FA
:100000000C9462000C948A000C948A000C948A0070
:100010000C948A000C948A000C948A000C948A0038
:100020000C948A000C948A000C948A000C948A0028
:100030000C948A000C948A000C948A000C948A0018
:100040000C9452030C948A000C9420030C94FA0232
:100050000C948A000C948A000C948A000C948A00F8
:100060000C948A000C948A000000000023002600F3
:10007000290000000000240027002A0000000000E2
:10008000250028002B0004040404040404040202D4
:100090000202020203030303030301020408102007
:1000A0004080010204081020010204081020000012
:1000B0000008000201000003040700000000000027
:1000C00000008C0411241FBECFEFD8E0DEBFCDBFEF
:1000D00011E0A0E0B1E0E2E8F9E002C005900D9285
:1000E000AE33B107D9F721E0AEE3B1E001C01D9214
:1000F000AC3EB207E1F710E0C2E6D0E004C02197C1
:10010000FE010E94B904C136D107C9F70E949C03C1
:100110000C94BF040C940000AF92BF92CF92DF9278
:10012000EF92FF920F931F93CF93DF936C017B01AC
:100130008B01040F151FEB015E01AE18BF08C0173D
:10014000D10759F06991D601ED91FC910190F081B0
:10015000E02DC6010995892B79F7C501DF91CF9173
:100160001F910F91FF90EF90DF90CF90BF90AF90D5
:100170000895FC01538D448D252F30E0842F90E0AD
:10018000821B930B541710F0CF9608950197089592
:10019000FC01918D828D981761F0A28DAE0FBF2F5B
:1001A000B11D5D968C91928D9F5F9F73928F90E0B1
:1001B00008958FEF9FEF0895FC01918D828D981720
:1001C00031F0828DE80FF11D858D90E008958FEF5D
:1001D0009FEF0895FC01918D228D892F90E0805C26
:1001E0009F4F821B91098F73992708958FE491E0A7
:1001F0000E94EA0021E0892B09F420E0822F089573
:1002000080E090E0892B29F00E94F60081110C9487
:1002100000000895FC01A48DA80FB92FB11DA35AA9
:10022000BF4F2C91848D90E001968F739927848F16
:10023000A689B7892C93A089B1898C918370806439
:100240008C93938D848D981306C00288F389E02DDA
:1002500080818F7D80830895EF92FF920F931F938B
:10026000CF93DF93EC0181E0888F9B8D8C8D981369
:100270001AC0E889F989808185FF15C09FB7F89475
:10028000EE89FF896083E889F989808183708064C1
:1002900080839FBF81E090E0DF91CF911F910F910C
:1002A000FF90EF900895F62E0B8D10E00F5F1F4F1B
:1002B0000F731127E02E8C8D8E110CC00FB607FC2A
:1002C000FACFE889F989808185FFF5CFCE010E94B8
:1002D0000A01F1CFEB8DEC0FFD2FF11DE35AFF4F1B
:1002E000F0829FB7F8940B8FEA89FB898081806246
:1002F000CFCFCF93DF93EC01888D8823B9F0AA8903
:10030000BB89E889F9898C9185FD03C0808186FDD0
:100310000DC00FB607FCF7CF8C9185FFF2CF80811F
:1003200085FFEDCFCE010E940A01E9CFDF91CF9189
:100330000895833081F028F4813099F08230A9F05B
:1003400008958730A9F08830C9F08430B1F48091E5
:1003500080008F7D03C0809180008F778093800024
:10036000089584B58F7784BD089584B58F7DFBCFC4
:100370008091B0008F778093B00008958091B00095
:100380008F7DF9CF1F93CF93DF93282F30E0F901B2
:10039000E255FF4F8491F901E656FF4FD491F901E0
:1003A000EA57FF4FC491CC23A9F0162F81110E9468
:1003B0009901EC2FF0E0EE0FFF1FE458FF4FA591DD
:1003C000B4918FB7F894EC91111108C0D095DE2349
:1003D000DC938FBFDF91CF911F910895DE2BF8CF73
:1003E000CF93DF9390E0FC01E656FF4F24918A57AC
:1003F0009F4FFC0184918823D1F090E0880F991FD2
:10040000FC01EE58FF4FA591B491FC01E458FF4F59
:10041000C591D49161110EC09FB7F8948C91E22FD1
:10042000E0958E238C932881E223E8839FBFDF91A0
:10043000CF9108958FB7F894EC91E22BEC938FBF96
:10044000F6CF4F925F926F927F928F929F92AF9270
:10045000BF92CF92DF92EF92FF920F931F93CF93B1
:10046000DF9361E089E00E94C20160E088E00E94C1
:10047000C2018FE090E00197F1F761E088E00E940F
:10048000C20160E089E00E94C201C8E1D0E0812C95
:10049000912C540129EB622E20E0722E35EAE32ED6
:1004A00030E0F32E41E9C42E40E0D42E0FE010E0FE
:1004B000880C991CAA1CBB1CF3018491F701549071
:1004C000F6014490442009F43CC081110E94990136
:1004D000E42DF0E0EE0FFF1FE859FF4FA591B49116
:1004E0008C91582231E020E009F430E0832F922FE4
:1004F000092E000CAA0BBB0B882A992AAA2ABB2A10
:1005000061E08CE00E94C201C8010197F1F760E050
:100510008CE00E94C201219709F0CACFC501B40145
:10052000DF91CF911F910F91FF90EF90DF90CF90CF
:10053000BF90AF909F908F907F906F905F904F9003
:10054000089590E080E0D4CFFC0101900020E9F70D
:100550003197AF01481B590BBC018FE491E00C941B
:100560008C000F931F93CF93DF93CDB7DEB7A19786
:100570000FB6F894DEBF0FBECDBF82E191E00E94BE
:10058000A40289E391E00E94A40210E000E08091BF
:100590004B0190914C01A0914D01B0914E01002E64
:1005A00004C0B695A795979587950A94D2F7817060
:1005B0009927AA27BB2719A2805D88A3CE01809620
:1005C0000E94A4028CE391E00E94A4020F5F1F4FDF
:1005D00008311105E1F689E391E00E94A402A19699
:1005E0000FB6F894DEBF0FBECDBFDF91CF911F9144
:1005F0000F9108951F920F920FB60F9211242F930F
:100600003F934F935F936F937F938F939F93AF939A
:10061000BF93EF93FF938FE491E00E940A01FF9153
:10062000EF91BF91AF919F918F917F916F915F916A
:100630004F913F912F910F900FBE0F901F901895E3
:100640001F920F920FB60F9211242F938F939F93A7
:10065000EF93FF93E0915F01F09160018081E09161
:100660006501F091660182FD1BC090818091680157
:100670008F5F8F7320916901821741F0E0916801CB
:10068000F0E0E15BFE4F958F80936801FF91EF9161
:100690009F918F912F910F900FBE0F901F901895E3
:1006A0008081F4CF1F920F920FB60F9211242F93D7
:1006B0003F938F939F93AF93BF938091430190910A
:1006C0004401A0914501B09146013091420123E0DF
:1006D000230F2D3758F50196A11DB11D209342011E
:1006E0008093430190934401A0934501B093460148
:1006F00080913E0190913F01A0914001B091410154
:100700000196A11DB11D80933E0190933F01A093DE
:100710004001B0934101BF91AF919F918F913F9163
:100720002F910F900FBE0F901F90189526E8230F62
:100730000296A11DB11DD2CF789484B5826084BD8C
:1007400084B5816084BD85B5826085BD85B58160D5
:1007500085BD80916E00816080936E001092810053
:10076000809181008260809381008091810081600E
:1007700080938100809180008160809380008091CF
:10078000B10084608093B1008091B000816080935B
:10079000B00080917A00846080937A0080917A0022
:1007A000826080937A0080917A00816080937A00E1
:1007B00080917A00806880937A001092C100E09165
:1007C0005F01F091600182E08083E0915B01F09134
:1007D0005C011082E0915D01F0915E018FEC8083FD
:1007E00010926701E0916301F091640186E08083DB
:1007F000E0916101F0916201808180618083E091EC
:100800006101F0916201808188608083E0916101E3
:10081000F0916201808180688083E0916101F091B4
:10082000620180818F7D808361E088E00E94F00119
:1008300061E089E00E94F00161E08CE00E94F0013B
:1008400060E08BE00E94F00160E084E10E94F00132
:1008500061E08DE00E94F00160E08CE00E94C20146
:1008600061E088E00E94C2010E94210260934B0176
:1008700070934C0180934D0190934E010E94B10200
:1008800080914B0190914C01A0914D01B0914E018E
:100890008093470190934801A0934901B0934A0186
:1008A000C0E0D0E00E9421026B017C01C0924B01AC
:1008B000D0924C01E0924D01F0924E0161E0E4FED5
:1008C00060E08DE00E94C201809147019091480153
:1008D000A0914901B0914A01C816D906EA06FB0663
:1008E00091F00E94B10280914B0190914C01A09136
:1008F0004D01B0914E018093470190934801A09320
:100900004901B0934A01209769F20E94F6008823BA
:1009100049F20E940000C6CFEFE4F1E01382128298
:1009200088EE93E0A0E0B0E084839583A683B7834C
:1009300084E091E09183808385EC90E095878487C3
:1009400084EC90E09787868780EC90E0918B808B99
:1009500081EC90E0938B828B82EC90E0958B848B82
:1009600086EC90E0978B868B118E128E138E148EF0
:100970000895EE0FFF1F0590F491E02D0994F8946F
:10098000FFCF000000002C018C00B9007901EA00C3
:10099000C800DC002A56616C65757273206465734B
:1009A0002072656769737472657320C3A02064C385
:1009B000A963616C616765203A2A000D0A00200076
:107E0000112484B714BE81FFF0D085E080938100F7
:107E100082E08093C00088E18093C10086E0809377
:107E2000C20080E18093C4008EE0C9D0259A86E02C
:107E300020E33CEF91E0309385002093840096BBD3
:107E4000B09BFECF1D9AA8958150A9F7CC24DD24C4
:107E500088248394B5E0AB2EA1E19A2EF3E0BF2EE7
:107E6000A2D0813461F49FD0082FAFD0023811F036
:107E7000013811F484E001C083E08DD089C08234E0
:107E800011F484E103C0853419F485E0A6D080C0E4
:107E9000853579F488D0E82EFF2485D0082F10E0AE
:107EA000102F00270E291F29000F111F8ED06801E7
:107EB0006FC0863521F484E090D080E0DECF843638
:107EC00009F040C070D06FD0082F6DD080E0C81688
:107ED00080E7D80618F4F601B7BEE895C0E0D1E017
:107EE00062D089930C17E1F7F0E0CF16F0E7DF06D8
:107EF00018F0F601B7BEE89568D007B600FCFDCFD4
:107F0000A601A0E0B1E02C9130E011968C91119780
:107F100090E0982F8827822B932B1296FA010C0160
:107F200087BEE89511244E5F5F4FF1E0A038BF0790
:107F300051F7F601A7BEE89507B600FCFDCF97BE46
:107F4000E89526C08437B1F42ED02DD0F82E2BD052
:107F50003CD0F601EF2C8F010F5F1F4F84911BD097
:107F6000EA94F801C1F70894C11CD11CFA94CF0C13
:107F7000D11C0EC0853739F428D08EE10CD085E9AC
:107F80000AD08FE07ACF813511F488E018D01DD067
:107F900080E101D065CF982F8091C00085FFFCCF94
:107FA0009093C60008958091C00087FFFCCF809118
:107FB000C00084FD01C0A8958091C6000895E0E648
:107FC000F0E098E1908380830895EDDF803219F02E
:107FD00088E0F5DFFFCF84E1DECF1F93182FE3DFCA
:107FE0001150E9F7F2DF1F91089580E0E8DFEE27F6
:047FF000FF270994CA
:027FFE00040479
:00000001FF
